:100000000C94DB000C9403010C9403010C94030189
:100010000C9403010C9403010C9403010C94030150
:100020000C9403010C9403010C94CC070C943B0832
:100030000C9403010C9403010C9403010C94030130
:100040000C9403010C9403010C9403010C94030120
:100050000C9403010C9403010C9403010C946D0A9D
:100060000C9403010C9403010C9403010C94030100
:100070000C9403010C9403010C9403010C940301F0
:100080000C9403010C9403010C9403010C940301E0
:100090000C9403010C9403010C9403010C940301D0
:1000A0000C9403010C9403010C940301070605044E
:1000B0000100080A0B0C0D090000000025002800B3
:1000C0002B002E00310000000000240027002A0031
:1000D0002D003000080B000202020000090400009D
:1000E00001020200000524001001052401010104A1
:1000F00024020605240600010705810310004009BB
:10010000040100020A000000070502024000000787
:100110000583024000000403090412010002EF02FB
:1001200001404123368000010102030141726475E0
:10013000696E6F204C4C430041726475696E6F208C
:100140004C656F6E6172646F000000000023002632
:100150000029002C002F00040404040403040502F9
:100160000202020403020202020606060606060452
:10017000040202020404040802011040804010201E
:10018000408040800802040180402010020110805D
:1001900010204040200000000200090F000003046E
:1001A00001000C0000000000000000000000000042
:1001B00000000000B70A11241FBECFEFDAE0DEBF57
:1001C000CDBF11E0A0E0B1E0E0EAF2E202C00590AC
:1001D0000D92A833B107D9F722E0A8E3B1E001C03E
:1001E0001D92A837B207E1F710E0CBEDD0E004C0D4
:1001F0002197FE010E940610CA3DD107C9F70E944F
:10020000BD0D0C944E110C9400004F925F926F92B2
:100210007F928F929F92AF92BF92CF92DF92EF9296
:10022000FF920F931F93CF93DF93E5010C151D05EC
:100230002E053F050CF051C0280139014601570138
:10024000882309F44FC0CA01DB0184159505A60572
:10025000B70514F4D301C201B501A40188159905AD
:10026000AA05BB0514F4AC01BD01C016D106E20617
:10027000F30664F4D501C401841B950BA60BB70BE0
:10028000AC01BD01440D551D661D771D9A01AB01E2
:100290002419350946095709AFEFBFEF0E94B60F81
:1002A000A501940124193509460957090E94970FA1
:1002B0002883398382E090E0DF91CF911F910F91E5
:1002C000FF90EF90DF90CF90BF90AF909F908F9076
:1002D0007F906F905F904F900895260137014801FD
:1002E0005901AECF90E080E0E7CFFC018091910111
:1002F000882311F13FB7F89482E08093E9002091C0
:10030000F200822F90E01816190614F481E090E0B4
:10031000882339F0289844E6409390014091F100F9
:100320004083222339F02091F200211103C02BE6F3
:100330002093E8003FBF08958FEF9FEF0895CF937C
:10034000DF931F92CDB7DEB76983DC01ED91FC919D
:100350000280F381E02D41E050E0BE016F5F7F4FEE
:1003600009950F90DF91CF91089583E08093E90084
:100370008091F200882319F08AE38093E8000895C1
:10038000CF93DF931F92CDB7DEB7FC0184859585AF
:1003900097FD08C02FEF3FEF358724870F90DF913F
:1003A000CF910895CE0101960E947501019719F42D
:1003B000898190E0F3CF8FEF9FEFF0CF0F931F93E2
:1003C000CF93DF931F92CDB7DEB78C01FC018485FC
:1003D000958597FF0BC0CE0101960E94750101978C
:1003E00071F4898190E0F80195878487F80184850C
:1003F00095850F90DF91CF911F910F9108958FEF09
:100400009FEFF1CFFC018485958597FD0BC09FB7C9
:10041000F89482E08093E9008091F2009FBF90E021
:10042000019608959FB7F89482E08093E900809147
:10043000F2009FBF90E008954091680150916901DA
:10044000209166013091670142175307B4F49091EF
:10045000E8009570E1F39091E80092FD19C0809357
:10046000F100809168019091690101968F7399273D
:10047000892B19F48EEF8093E800809168019091A8
:1004800069010196909369018093680181E0089564
:1004900080E00895EF92FF920F931F93CF93DF9325
:1004A000F82E192FE62E042F81E0860F880F0E9468
:1004B0001C0283E00E941C02CF2DD12FEC0EFD2EDA
:1004C000F11CCE15DF05B9F007FF13C0FE018491C2
:1004D0000E941C02182F80E00E941C02812321969A
:1004E0008111EFCFDF91CF911F910F91FF90EF908E
:1004F00008958881EDCF81E0F5CFDF92EF92FF92F2
:100500000F931F93CF93DF93D82E8A01EB017B01CA
:10051000E40EF51ECE15DF0559F0D7FE12C0FE0120
:1005200084910E941C0221968111F4CF0FEF1FEFDE
:10053000C801DF91CF911F910F91FF90EF90DF9055
:1005400008958881EECF2FB7F89487708093E900E3
:100550009091E800892F807295FF04C09091F2007D
:1005600080E4891B2FBF089583E00E94A30290E0DE
:100570000895615030F02091F100FC012083019634
:10058000F8CF289884E680939001089580915E01C9
:1005900081110DC082E080935A0184E080935B0159
:1005A00010925D0110925C0181E080935E018AE50A
:1005B00091E008950F931F93CF93DF931F92CDB7D0
:1005C000DEB782E0898342E450E064ED70E080E8C9
:1005D0000E947D020E94C602DC0112960D911C91C0
:1005E0000115110589F0D801ED91FC910280F3818C
:1005F000E02DBE016F5F7F4FC801099597FD04C0D4
:10060000F80100851185ECCF89810F90DF91CF91A2
:100610001F910F910895CF93DF9390E0FC01EA586A
:10062000FE4F2491895A9E4FFC0184918823C9F082
:1006300090E0880F991FFC01EA53FF4FA591B491F8
:10064000FC01E854FF4FC591D49161110DC09FB7D3
:10065000F8948C91209582238C9388812823288379
:100660009FBFDF91CF910895623051F49FB7F89406
:100670003C91822F809583238C93E8812E2BEFCFA2
:100680008FB7F894EC912E2B2C938FBFEACFE82FE5
:10069000F0E0E455FF4FE49190917B008E2F880F9E
:1006A000880F80729F7D892B80937B00E770E064C8
:1006B000E0937C0080917A00806480937A0080913E
:1006C0007A0086FDFCCF80917800909179000895A2
:1006D0003FB7F8948091560190915701A09158012D
:1006E000B091590126B5A89B05C02F3F19F001967E
:1006F000A11DB11D3FBFBA2FA92F982F8827BC017C
:10070000CD01620F711D811D911D42E0660F771FA3
:10071000881F991F4A95D1F708958F929F92AF92A3
:10072000BF92CF92DF92EF92FF924B015C010E9449
:1007300068036B017C010E9468036C197D098E09B6
:100740009F09683E734081059105A8F321E0821A54
:100750009108A108B10888EEC80E83E0D81EE11CFC
:10076000F11C81149104A104B10429F7FF90EF90CA
:10077000DF90CF90BF90AF909F908F9008957F9221
:100780008F929F92AF92BF92CF92DF92EF92FF92A1
:100790000F931F93CF93DF93C82E8B017A01809123
:1007A0009101811110C08FEF9FEFDF91CF911F91C9
:1007B0000F91FF90EF90DF90CF90BF90AF909F9000
:1007C0008F907F90089580916C0180FF05C080918B
:1007D000E00082608093E000CE2DDF2DD12C8AEFE7
:1007E000B82E8C2D8770982E8C2D8072882E8C2D93
:1007F0008074782E9AE3A92E209719F4DD2009F44D
:1008000052C08C2D0E94A30281110AC0BA94BB2051
:1008100051F261E070E080E090E00E948D03ECCF47
:100820008C171D0611F00CF08C2F9FB7F894909246
:10083000E9002091E80025FD02C09FBFDDCF282FF1
:1008400030E0C21BD30B882029F08150A0F0109219
:10085000F100FBCFF801C7FC0AC0815050F0419174
:100860004093F100FACF44914093F10031968150CA
:10087000D0F7020F131FDD2021F0A092E800D12C49
:10088000DCCF8091E80085FD07C0A092E800DD2460
:10089000D394209791F2F3CF209779F6772069F2DD
:1008A000A092E800CACF5D9884E680936B01C701EF
:1008B0007CCFCF93DF93EC0180911201882331F03C
:1008C00083E00E94BF031816190634F081E090E01F
:1008D0009B838A8380E090E0DF91CF910895DC01D3
:1008E000FB0112962C911297848195812817190685
:1008F00041F491818081813A31F49D7F81E0913092
:1009000009F080E008958132E1F79B3029F482817B
:100910001F968C9381E008959A3099F782815096C2
:100920008C93F8CFDC01FB0188E4808389E4818328
:1009300084E482831D969C911D979F709F5B938397
:100940001D968D919C9124E0969587952A95E1F7C7
:100950008F708F5B848385E00895EF92FF920F93F1
:100960001F93CF93DF93FB012081213889F52381E9
:10097000223271F5DC0112964C91248135814217A7
:10098000130631F58C01FC01C385D485F12CE12CD3
:10099000209791F04C815D816A817B818E818111EC
:1009A00080E80E947D028F3F980759F0E80EF91EFB
:1009B0000990D881C02DECCF81E0D8011F968C938F
:1009C000C701DF91CF911F910F91FF90EF90089594
:1009D00090E080E0F6CFCF93DF93CDB7DEB7699795
:1009E0000FB6F894DEBF0FBECDBFFC01DB018C91CA
:1009F0008F5F8C939E012D5F3F4F8DE0D9011D923B
:100A00008A95E9F729E0298384E08A8391E09D8330
:100A100083E08E832A8721E22B879C879D879F878F
:100A200022E2288B27E02B8B25E02C8B8E8B20E479
:100A300030E0388F2F8B998F82818B8395858685C7
:100A4000998B8A8B838180688D8B49E150E0BE0150
:100A50006F5F7F4F80E00E947D0269960FB6F89429
:100A6000DEBF0FBECDBFDF91CF910895CF93DF934F
:100A700080914901811167C081E080933C0180939E
:100A80003D0122E431E030933F0120933E0110927A
:100A90004101109240012DE131E030933901209362
:100AA00038011092440110924301109246011092B5
:100AB0004501809347018093480181EC8093420176
:100AC0000E94C602FC01818190913C01482F490F90
:100AD0005527551F483051059CF5A281B3811097C9
:100AE00009F528E331E033832283208120933A0102
:100AF00080933B0180913D01820F808320913E01D4
:100B0000A22FB0913F018A2F821B8917C8F48181DF
:100B10003D91C82FD0E0C050DF4F38838F5F818375
:100B2000F2CFD90118962D913C91199721153105D5
:100B3000C1F728E331E019963C932E931897D5CF4F
:100B400081E08093490188E391E0DF91CF9108959E
:100B50004F925F926F927F928F929F92AF92BF92CD
:100B6000CF92DF92EF92FF920F931F93CF93DF9379
:100B7000CDB7DEB74DB65EB6809173022DB73EB7E6
:100B8000281B31090FB6F8943EBF0FBE2DBF8DB79D
:100B90009EB701963C0180901602912C8091120222
:100BA00090911302D301FC019F01281B390B2815DA
:100BB00039051CF421912D93F7CF809117028823DA
:100BC00059F180910E0290910F0228E097FD09C023
:100BD00068E671E00E94F20F6DE270E00E94F20F91
:100BE000262F809110029091110268E097FD08C0B5
:100BF00068E671E00E94F20F6DE270E00E94F20F71
:100C0000F301E80DF91D90E1699FB0011124262B35
:100C10002083F40131964F015301A80CB91CC090F8
:100C20001E02D0901F02E0902002F090210200915D
:100C30001A0210911B0220911C0230911D0240915A
:100C4000E2015091E3016091E4017091E50180912E
:100C5000180281700E940501880E991E5301A80C8C
:100C6000B91CC0902602D0902702E0902802F09094
:100C70002902009122021091230220912402309136
:100C800025024091E6015091E7016091E8017091E1
:100C9000E90180911802869581700E940501880EF5
:100CA000991E5301A80CB91CC0902E02D0902F029F
:100CB000E0903002F090310200912A0210912B0254
:100CC00020912C0230912D024091EA015091EB01CC
:100CD0006091EC017091ED018091180282FB8827F0
:100CE00080F90E940501880E991E5301A80CB91CB9
:100CF000C0903602D0903702E0903802F09039026E
:100D00000091320210913302209134023091350269
:100D10004091EE015091EF016091F0017091F1016D
:100D20008091180283FB882780F90E940501880EB4
:100D3000991E5301A80CB91CC0903E02D0903F02EE
:100D4000E0904002F090410200913A0210913B0283
:100D500020913C0230913D024091F2015091F3010B
:100D60006091F4017091F501809118028295817073
:100D70000E940501880E991E5301A80CB91CC09051
:100D80004602D0904702E0904802F090490200915C
:100D90004202109143022091440230914502409159
:100DA000F6015091F7016091F8017091F90180917D
:100DB000180285FB882780F90E940501880E991E7C
:100DC0005301A80CB91CC0904E02D0904F02E09085
:100DD0005002F090510200914A0210914B02209172
:100DE0004C0230914D024091FE015091FF01609103
:100DF0000002709101028091190281700E94050128
:100E0000880E991E5301A80CB91CC0905602D090B0
:100E10005702E0905802F09059020091520210914E
:100E2000530220915402309155024091FA015091A1
:100E3000FB016091FC017091FD0180911902869582
:100E400081700E940501880E991E5301A80CB91CDF
:100E5000C0905E02D0905F02E0906002F09061026C
:100E600000915A0210915B0220915C0230915D0268
:100E700040910202509103026091040270910502B8
:100E80008091190282FB882780F90E940501880E53
:100E9000991E5301A80CB91CC0906602D09067023D
:100EA000E0906802F0906902009162021091630282
:100EB0002091640230916502409106025091070230
:100EC00060910802709109028091190283FB8827C2
:100ED00080F90E940501880D991D5301A80EB91EC5
:100EE000C0906E02D0906F02E0907002F09071029C
:100EF00000916A0210916B0220916C0230916D0298
:100F000040910A0250910B0260910C0270910D0207
:100F100080911902829581700E9405010E94360518
:100F20004C01409173028091720250E05A01FFEF30
:100F3000AF1ABF0A2DB73EB72A193B090FB6F8946E
:100F40003EBF0FBE2DBF0DB71EB70F5F1F4FEDB7D2
:100F5000FEB78183B301C80101960E944511F401D7
:100F60008381A501B80180640E94BF030FB6F89485
:100F70005EBE0FBE4DBEDF91CF911F910F91FF90CE
:100F8000EF90DF90CF90BF90AF909F908F907F9029
:100F90006F905F904F9008951F920F920FB60F922F
:100FA00011248F939F938091E1009091E100937FB2
:100FB0009093E10083FF0FC01092E90091E09093BD
:100FC000EB001092EC0092E39093ED0010929101EF
:100FD00098E09093F00082FF22C093E09093E900A4
:100FE0009091F200992319F09AE39093E800909180
:100FF0006B01992341F090916B01915090936B019B
:10100000911101C05D9A90919001992341F09091C6
:101010009001915090939001911101C0289A84FF02
:1010200018C08091E2008E7E81608093E200809102
:10103000E1008F7E8093E10080916C018E7E806163
:1010400080936C019F918F910F900FBE0F901F9016
:10105000189580FFF7CF8091E2008E7E80618093AB
:10106000E2008091E1008E7E8093E10080916C012E
:101070008E7E8160E5CF1F920F920FB60F921124E2
:10108000CF92DF92EF92FF920F931F932F933F9394
:101090004F935F936F937F938F939F93AF93BF9380
:1010A000EF93FF93CF93DF93CDB7DEB76C97DEBF9F
:1010B000CDBF1092E9008091E80083FF25C068E071
:1010C000CE0145960E94B90282EF8093E8008D8997
:1010D00087FF39C09091E80090FFFCCF982F907661
:1010E00009F034C19E894F89588D2F89F88C911150
:1010F00031C0803861F580916D018093F1001092CC
:10110000F1008EEF8093E8006C960FB6F894DEBF86
:101110000FBECDBFDF91CF91FF91EF91BF91AF9106
:101120009F918F917F916F915F914F913F912F91FF
:101130001F910F91FF90EF90DF90CF900F900FBE17
:101140000F901F9018959EEF9093E800C7CF1092D4
:10115000F100D5CF913059F48111D3CF41305105F1
:1011600081F680916D018D7F80936D01CACF9330A0
:1011700049F48111C6CF4130510519F680916D01B6
:101180008260F2CF953041F48091E80080FFFCCF7F
:1011900020682093E300B5CF963009F0A9C00B8DED
:1011A0001C8D22E01092E9001092690110926801F2
:1011B000F2122EC010926701109266010E94DA02AC
:1011C0001F8299E09983FA8291E09E8390EA988742
:1011D0009AEF99872091680130916901275F3F4F0D
:1011E0003C832B838D831092E90010926901109249
:1011F0006801109367010093660149E050E0BE0169
:101200006F5F7F4F80E00E947D020E94DA0279CFFB
:1012100010936701009366010E94C602DC011296DA
:101220000D911C910115110509F451C1D801ED91E1
:10123000FC910480F581E02DBE016B5E7F4FC801FB
:101240000995009709F03EC1F80100851185EACFA4
:10125000F3E0FF120EC08F89882309F440C082306A
:1012600061F440E860E188E391E00E944A02811164
:1012700048CF81E28093EB0047CF813029F440E8EA
:101280006BE08CE291E0F1CF833099F70E94C602C7
:10129000DC011296ED90FC908E010F5F1F4F6801EC
:1012A000E114F10479F0D701ED91FC910680F7810A
:1012B000E02DB801C7010995080F111DF701E08461
:1012C000F184EECFD8011C92F60101900020E9F7DD
:1012D0003197BF016C197D0940E0C601C6CF66E1B8
:1012E00071E0FB01449150E080E80E947D0209CF4B
:1012F000973009F4BECF983021F481E08093F1005B
:1013000000CF993009F0FDCE837009F0B2CFE1E053
:10131000F1E081E031E096E32191222371F08093A6
:10132000E9003093EB00DF0111972C912093EC0042
:101330009093ED008F5F873079F78EE78093EA0016
:101340001092EA008F8980939101DBCE8B8D9C8D6A
:101350001092E90010926901109268019093670160
:1013600080936601898D811192C08E899D89913A01
:1013700049F4813209F07DCF47E050E06BE071E045
:1013800080E0B3CF913209F074CF833269F48F8952
:10139000988DB0E0A0E08093070190930801A0939E
:1013A0000901B0930A01ADCE803269F48091E80062
:1013B00082FFFCCF67E08BE091E00E94B9028BEFE7
:1013C0008093E8009ECE823209F09BCE8F89809375
:1013D0001201EEEFFFE7859194918B3F9C4D51F107
:1013E000E0E0F8E080910B0190910C01A0910D01DB
:1013F000B0910E01803B9440A105B105F1F48091BC
:10140000120180FD1AC0EE3F8AE0F80789F587E7F0
:1014100097E7918380838091600080936A0188E1DF
:101420009BE00FB6F894A895809360000FBE909350
:10143000600067CEEEEFFAE0D5CF808191818737EB
:10144000974709F05ECEA8958091600088618093EF
:10145000600080916A0180936000EE3F2AE0F2070D
:1014600089F08091FE0A9091FF0A9183808349CE92
:10147000808191818737980751F29093FF0A80937A
:10148000FE0AC5CF1092FF0A1092FE0A3ACE0E94C1
:10149000C602DC0112960D911C910115110509F48B
:1014A000E8CED801ED91FC910190F081E02DBE01D4
:1014B0006B5E7F4FC8010995811123CEF80100852D
:1014C0001185EBCF181619060CF41BCED2CEF1E025
:1014D000FF12BECE6AE171E004CF1F920F920FB6E9
:1014E0000F9211242F933F938F939F93AF93BF93AA
:1014F0008091520190915301A0915401B0915501F6
:101500003091510123E0230F2D3758F50196A11D8D
:10151000B11D209351018093520190935301A093E8
:101520005401B09355018091560190915701A091BB
:101530005801B09159010196A11DB11D809356012A
:1015400090935701A0935801B0935901BF91AF9167
:101550009F918F913F912F910F900FBE0F901F90F1
:10156000189526E8230F0296A11DB11DD2CFCF9268
:10157000DF92EF92FF920F931F93CF93DF93CDB73C
:10158000DEB7C659D1090FB6F894DEBF0FBECDBF86
:10159000109295011092940188EE93E0A0E0B0E0E3
:1015A0008093960190939701A0939801B09399012D
:1015B00089E291E090939301809392018FEF9FEFE6
:1015C00090939F0180939E01109213021092120239
:1015D0001092160210921A0210921B0210921C0214
:1015E00010921D028FEF93E0A0E0B0E080931E0206
:1015F00090931F02A0932002B09321021092220226
:101600001092230210922402109225028093260247
:1016100090932702A0932802B093290210922A02E5
:1016200010922B0210922C0210922D0280932E0207
:1016300090932F02A0933002B093310210923202A5
:1016400010923302109234021092350280933602C7
:1016500090933702A0933802B093390210923A0265
:1016600010923B0210923C0210923D0280933E0287
:1016700090933F02A0934002B09341021092420225
:101680001092430210924402109245028093460247
:1016900090934702A0934802B093490210924A02E5
:1016A00010924B0210924C0210924D0280934E0207
:1016B00090934F02A0935002B093510210925202A5
:1016C00010925302109254021092550280935602C7
:1016D00090935702A0935802B093590210925A0265
:1016E00010925B0210925C0210925D0280935E0287
:1016F00090935F02A0936002B09361021092620225
:101700001092630210926402109265028093660246
:1017100090936702A0936802B093690210926A02E4
:1017200010926B0210926C0210926D0280936E0206
:1017300090936F02A0937002B093710253E05093A4
:10174000720230E23093150222E0209317028FE3F9
:10175000809318028FE18093190245E0498391E05C
:101760009A8389E08B83A4E0AC83F1EAFD839E83B6
:1017700065E86F83588749878A8759E15B879C872B
:1017800059E25D873E8775E17F87188A15E2198BDC
:101790009A8B65E76B8B9C8B55E95D8B3E8B35E5B2
:1017A0003F8B188EB5E6B98F1A8E31E83B8F2C8FA0
:1017B0004D8F9E8F8F8FE9E3CE2EC8A279A31AA2F8
:1017C0001BA307E0D02EDCA2E5E3EDA31EA206E4F6
:1017D000E02EEFA20BE3F02EF8A699A7BAA704E13A
:1017E0000BA76CA7ADA75EA79FA738AB29AB8AABA9
:1017F000CBAA7CAB1DAA1EABDFAAE8AF19AEEAAE3E
:10180000FBAE9CAFBDAF0EAF6FAF2196AFAF2197D0
:1018100022965FAF229723969FAF239724963FAFE0
:10182000249725962FAF259726968FAF2697279634
:101830009FAF279728967FAF289729961FAE2997A5
:10184000B7E22A96BFAF2A979FEF2B969FAF2B97B1
:101850002C969FAF2C972D961FAE2D972E961FAED0
:101860002E972F966FAF2F97A0E16096AFAF60973E
:1018700061965FAF619716E062961FAF62976396BD
:10188000FFAF639764961FAE649765968FAF6597B9
:1018900010E366961FAF669767968FAF679711E361
:1018A00068961FAF689769968FAF699712E36A963B
:1018B0001FAF6A976B968FAF6B9713E36C961FAF52
:1018C0006C976D968FAF6D9714E36E961FAF6E9702
:1018D0006F968FAF6F97A096EFAFA097A1963FAF8F
:1018E000A197A2962FAFA297E0ECA396EFAFA39794
:1018F000A4964FAFA497A5962FAFA597A6967FAFB6
:10190000A697A7961FAEA797A896BFAFA897A99628
:101910009FAFA997AA969FAFAA97AB961FAEAB971A
:10192000AC961FAEAC97AD966FAFAD97AE96AFAF1E
:10193000AE97AF965FAFAF97E0964FAFE097E19667
:10194000FFAFE197E2961FAEE297E3968FAFE39782
:101950009AEBE4969FAFE497E5968FAFE5979BEB04
:10196000E6969FAFE697E7968FAFE79794ECE896F9
:101970009FAFE897E9968FAFE99795ECEA969FAF0E
:10198000EA97EB968FAFEB9788ECEC968FAFEC97DE
:10199000ED963FAFED97EE962FAFEE97EF96EFAF48
:1019A000EF97C158DF4FE883CF57D0408FE790E0E3
:1019B0000E9420107C018FE7FE013196D701019033
:1019C0000D928A95E1F787E090E00E9420108C014B
:1019D000DC0111961C921E921396FC92EE921297C5
:1019E0008FE790E015969C938E93149716961C9211
:1019F0000E943605FC01A385B485109709F0A3C0A9
:101A00001487038785859685D80114962D913C917E
:101A1000820F931F9687858790911502892F86954F
:101A200086958695977009F096C08093160210915E
:101A30001602812F90E0009711F481E090E00E945F
:101A40002010909313028093120281E0909117026C
:101A5000911101C080E01A5E810F80937302109291
:101A6000E2011092E3011092E4011092E50110925C
:101A7000E6011092E7011092E8011092E90110923C
:101A8000EA011092EB011092EC011092ED0110921C
:101A9000EE011092EF011092F0011092F1011092FC
:101AA000F2011092F3011092F4011092F5011092DC
:101AB000F6011092F7011092F8011092F9011092BC
:101AC000FA011092FB011092FC011092FD0110929C
:101AD000FE011092FF01109200021092010210927A
:101AE0000202109203021092040210920502109258
:101AF0000602109207021092080210920902109238
:101B00000A0210920B0210920C0210920D028FEF3B
:101B10009FEF90930F0280930E0290931102809397
:101B2000100290E080E02091160228171906A9F013
:101B3000A4F0E0911202F0911302E80FF91F108255
:101B40000196F1CFDC018D919C9111970097D1F70F
:101B50000D931C9357CF8F5F68CFCA56DF4F0FB6D8
:101B6000F894DEBF0FBECDBFDF91CF911F910F91D3
:101B7000FF90EF90DF90CF900895789484B58260C5
:101B800084BD84B5816084BD85B5826085BD85B521
:101B9000816085BD80916E00816080936E0010929F
:101BA000810080918100826080938100809181001A
:101BB00081608093810080918000816080938000AB
:101BC000809191008260809391008091910081606A
:101BD000809391008091900081608093900080912B
:101BE000C10084608093C1008091C10082608093B5
:101BF000C1008091C10081608093C1008091C300C9
:101C000081608093C3008091C00082608093C00097
:101C10008091C20081608093C20080917A008460CC
:101C200080937A0080917A00826080937A0080911C
:101C30007A00816080937A0080917A008068809336
:101C40007A001092910110926D0110926C018091B6
:101C5000D70081608093D70080EA8093D80089B54F
:101C6000806189BD89B5826089BD09B400FEFDCF60
:101C700061E070E080E090E00E948D038091D800E8
:101C80008F7C80618093D8008091E000807F80937A
:101C9000E0008091E1008E7E8093E1008DE08093F2
:101CA000E200559A209A62E082E10E940B0362E012
:101CB00084E10E940B0360E082E00E940B03E0E7F6
:101CC000F1E080E991E0119211928E179F07D9F708
:101CD000109277011092760181E0809314020E94A5
:101CE000A80557E9452E51E0552E812C912C540121
:101CF0008394EE24E394F12C38E7632E31E0732EC5
:101D000049E5C42E41E0D42E80E00E9447038C01B7
:101D100082E00E944703F2014491F3013491F601FD
:101D20002491222309F4C9C04423E9F041504F30E3
:101D3000D0F4E42FF0E0E156F14F0C940610380F88
:101D40003C0FAE0E300F340FB30EB30EB30E3F0F79
:101D5000450F490F4D0F530FB30E570F40918000A1
:101D60004F7740938000E22FF0E0EE0FFF1FE75B1C
:101D7000FE4FA591B4912C91322309F49EC0F092AC
:101D80007301E0927201C8E0D0E080916E01909101
:101D90006F018630910521F010927301109272014B
:101DA0008C179D0709F44EC0D0936F01C0936E014C
:101DB00010E080911502181700F5809112029091A1
:101DC0001302E12FE695E695E695E80FF92FF11D50
:101DD000812F8770A501940104C0220F331F441F77
:101DE000551F8A95D2F7922F909580818923808301
:101DF0008091140281110E94A8051F5F1B30C9F653
:101E0000C15080911502C817E8F4EC2FE695E695CD
:101E1000E6958091120290911302E80FF92FF11DBF
:101E2000C770D501C40104C0880F991FAA1FBB1F2A
:101E3000CA95D2F72081822B808380911402811170
:101E40000E94A80562E370E080E090E00E948D03AC
:101E500080E090E0892B09F457CF0E9400004CCF1E
:101E6000409180004F7D7DCF40918000477F79CFAA
:101E700044B54F7744BD77CF44B54F7DFBCF4091FC
:101E800090004F77409390006ECF409190004F7D2F
:101E9000F9CF40919000477FF5CF4091C0004F7738
:101EA0004093C00060CF4091C0004F7DF9CF40917A
:101EB000C200477F4093C20056CFC0917601D091B7
:101EC0007701209741F50039F1E01F075CF4853870
:101ED00023E092071CF5843F91400CF056CFC2E0FE
:101EE000D0E053CF053F11405CF0853853E09507B3
:101EF000C4F4843F91400CF048CFC6E0D0E045CF19
:101F00008538F3E09F0784F4843F91400CF03DCF87
:101F1000C4E0D0E03ACFD0E0C0E037CFC1E0D0E0BD
:101F200034CFC5E0D0E031CFC3E0D0E02ECF052ED6
:101F300097FB1EF400940E94AE0F57FD07D00E943D
:101F4000C10F07FC03D04EF40C94AE0F5095409592
:101F5000309521953F4F4F4F5F4F08959095809555
:101F6000709561957F4F8F4F9F4F08950E94E30FAB
:101F7000A59F900DB49F900DA49F800D911D1124DD
:101F80000895A1E21A2EAA1BBB1BFD010DC0AA1FBA
:101F9000BB1FEE1FFF1FA217B307E407F50720F0D2
:101FA000A21BB30BE40BF50B661F771F881F991F4D
:101FB0001A9469F760957095809590959B01AC0196
:101FC000BD01CF010895A29FB001B39FC001A39F9F
:101FD000700D811D1124911DB29F700D811D112462
:101FE000911D089597FB072E16F4009407D077FDF6
:101FF00009D00E940C1007FC05D03EF49095819505
:102000009F4F0895709561957F4F0895EE0FFF1FC4
:102010000590F491E02D0994AA1BBB1B51E107C068
:10202000AA1FBB1FA617B70710F0A61BB70B881F68
:10203000991F5A95A9F780959095BC01CD010895F7
:102040000F931F93CF93DF938230910510F482E0BA
:1020500090E0E0917602F091770230E020E0B0E08D
:10206000A0E0309799F42115310509F44AC0281BE6
:10207000390B24303105D8F58A819B8161157105B2
:1020800089F1FB0193838283FE0111C0408151815C
:102090000281138148175907E0F04817590799F44E
:1020A000109761F012960C93129713961C93329628
:1020B000CF01DF91CF911F910F9108950093760288
:1020C00010937702F4CF2115310551F042175307D1
:1020D00038F0A901DB019A01BD01DF01F801C1CF90
:1020E000EF01F9CF9093770280937602CDCFFE0176
:1020F000E20FF31F81939193225031093983288392
:10210000D7CF2091740230917502232B41F4209196
:1021100015013091160130937502209374022091BD
:102120001301309114012115310541F42DB73EB74B
:102130004091170150911801241B350BE091740256
:10214000F0917502E217F307A0F42E1B3F0B28173E
:10215000390778F0AC014E5F5F4F2417350748F020
:102160004E0F5F1F509375024093740281939193B9
:102170009FCFF0E0E0E09CCFCF93DF930097E9F0B2
:10218000FC01329713821282A0917602B0917702FD
:10219000ED0130E020E01097A1F420813181820F21
:1021A000931F20917402309175022817390709F0A6
:1021B00061C0F0937502E0937402DF91CF910895AE
:1021C000EA01CE17DF07E8F54A815B819E014115E0
:1021D0005105B1F7E901FB83EA8349915991C40F95
:1021E000D51FEC17FD0761F4808191810296840F61
:1021F000951FE90199838883828193819B838A83D8
:10220000F0E0E0E012968D919C9113970097B9F55C
:102210002D913C911197CD010296820F931F209131
:102220007402309175022817390739F6309751F545
:102230001092770210927602B0937502A093740206
:10224000BCCFD383C28340815181840F951FC817AF
:10225000D90761F44E5F5F4F88819981480F591FFC
:10226000518340838A819B81938382832115310529
:1022700009F0B0CFF0937702E09376029ECFFD0194
:10228000DC01C0CF13821282D7CFFB01DC0102C078
:1022900001900D9241505040D8F70895F894FFCF27
:1022A00000C18081000000FFFFFFFF00E10000008F
:1022B000000000000078028000000000006F04EBC6
:1022C00004AD049204000000009F015904B402B55B
:0822D000010202C001DE010061
:00000001FF
